{
  "_format": "hh-sol-artifact-1",
  "contractName": "QVtoken",
  "sourceName": "QvToken/QvToken.sol",
  "abi": [
    {
      "inputs": [],
      "stateMutability": "nonpayable",
      "type": "constructor"
    },
    {
      "anonymous": false,
      "inputs": [
        {
          "indexed": false,
          "internalType": "string",
          "name": "mintAndburn",
          "type": "string"
        },
        {
          "indexed": false,
          "internalType": "address",
          "name": "account",
          "type": "address"
        },
        {
          "indexed": false,
          "internalType": "uint256",
          "name": "amount",
          "type": "uint256"
        }
      ],
      "name": "mintAndburn",
      "type": "event"
    },
    {
      "inputs": [
        {
          "internalType": "address",
          "name": "account",
          "type": "address"
        }
      ],
      "name": "balanceOf",
      "outputs": [
        {
          "internalType": "uint256",
          "name": "",
          "type": "uint256"
        }
      ],
      "stateMutability": "view",
      "type": "function"
    },
    {
      "inputs": [],
      "name": "checkAdmin",
      "outputs": [
        {
          "internalType": "bool",
          "name": "",
          "type": "bool"
        }
      ],
      "stateMutability": "view",
      "type": "function"
    },
    {
      "inputs": [],
      "name": "decimals",
      "outputs": [
        {
          "internalType": "uint8",
          "name": "",
          "type": "uint8"
        }
      ],
      "stateMutability": "view",
      "type": "function"
    },
    {
      "inputs": [],
      "name": "name",
      "outputs": [
        {
          "internalType": "string",
          "name": "",
          "type": "string"
        }
      ],
      "stateMutability": "view",
      "type": "function"
    },
    {
      "inputs": [],
      "name": "symbol",
      "outputs": [
        {
          "internalType": "string",
          "name": "",
          "type": "string"
        }
      ],
      "stateMutability": "view",
      "type": "function"
    },
    {
      "inputs": [],
      "name": "totalSupply",
      "outputs": [
        {
          "internalType": "uint256",
          "name": "",
          "type": "uint256"
        }
      ],
      "stateMutability": "view",
      "type": "function"
    }
  ],
  "bytecode": "0x608060405234801561001057600080fd5b506040518060400160405280600c81526020017f51566f74696e67546f6b656e00000000000000000000000000000000000000008152506040518060400160405280600281526020017f517600000000000000000000000000000000000000000000000000000000000081525081600290805190602001906100939291906100f3565b5080600390805190602001906100aa9291906100f3565b50505033600460006101000a81548173ffffffffffffffffffffffffffffffffffffffff021916908373ffffffffffffffffffffffffffffffffffffffff1602179055506101f7565b8280546100ff90610196565b90600052602060002090601f0160209004810192826101215760008555610168565b82601f1061013a57805160ff1916838001178555610168565b82800160010185558215610168579182015b8281111561016757825182559160200191906001019061014c565b5b5090506101759190610179565b5090565b5b8082111561019257600081600090555060010161017a565b5090565b600060028204905060018216806101ae57607f821691505b602082108114156101c2576101c16101c8565b5b50919050565b7f4e487b7100000000000000000000000000000000000000000000000000000000600052602260045260246000fd5b61058f806102066000396000f3fe608060405234801561001057600080fd5b50600436106100625760003560e01c806306fdde031461006757806318160ddd14610085578063313ce567146100a357806370a08231146100c157806395d89b41146100f1578063ab1502261461010f575b600080fd5b61006f61012d565b60405161007c91906103d4565b60405180910390f35b61008d6101bf565b60405161009a91906103f6565b60405180910390f35b6100ab6101c9565b6040516100b89190610411565b60405180910390f35b6100db60048036038101906100d6919061032a565b6101d2565b6040516100e891906103f6565b60405180910390f35b6100f961021a565b60405161010691906103d4565b60405180910390f35b6101176102ac565b60405161012491906103b9565b60405180910390f35b60606002805461013c906104d0565b80601f0160208091040260200160405190810160405280929190818152602001828054610168906104d0565b80156101b55780601f1061018a576101008083540402835291602001916101b5565b820191906000526020600020905b81548152906001019060200180831161019857829003601f168201915b5050505050905090565b6000600154905090565b60006012905090565b60008060008373ffffffffffffffffffffffffffffffffffffffff1673ffffffffffffffffffffffffffffffffffffffff168152602001908152602001600020549050919050565b606060038054610229906104d0565b80601f0160208091040260200160405190810160405280929190818152602001828054610255906104d0565b80156102a25780601f10610277576101008083540402835291602001916102a2565b820191906000526020600020905b81548152906001019060200180831161028557829003601f168201915b5050505050905090565b6000600460009054906101000a900473ffffffffffffffffffffffffffffffffffffffff1673ffffffffffffffffffffffffffffffffffffffff163373ffffffffffffffffffffffffffffffffffffffff16141561030d5760019050610312565b600090505b90565b60008135905061032481610542565b92915050565b60006020828403121561033c57600080fd5b600061034a84828501610315565b91505092915050565b61035c8161045a565b82525050565b600061036d8261042c565b6103778185610437565b935061038781856020860161049d565b61039081610531565b840191505092915050565b6103a481610486565b82525050565b6103b381610490565b82525050565b60006020820190506103ce6000830184610353565b92915050565b600060208201905081810360008301526103ee8184610362565b905092915050565b600060208201905061040b600083018461039b565b92915050565b600060208201905061042660008301846103aa565b92915050565b600081519050919050565b600082825260208201905092915050565b600061045382610466565b9050919050565b60008115159050919050565b600073ffffffffffffffffffffffffffffffffffffffff82169050919050565b6000819050919050565b600060ff82169050919050565b60005b838110156104bb5780820151818401526020810190506104a0565b838111156104ca576000848401525b50505050565b600060028204905060018216806104e857607f821691505b602082108114156104fc576104fb610502565b5b50919050565b7f4e487b7100000000000000000000000000000000000000000000000000000000600052602260045260246000fd5b6000601f19601f8301169050919050565b61054b81610448565b811461055657600080fd5b5056fea2646970667358221220c6fb4bcb86b077032f035e943c0da6272c1074690be5e041fa3de6be965a99d064736f6c63430008030033",
  "linkReferences": {},
  "deployedLinkReferences": {}
}